{"abi":[{"type":"function","name":"HOUSE_EDGE_PERCENT","inputs":[],"outputs":[{"name":"","type":"uint256","internalType":"uint256"}],"stateMutability":"view"},{"type":"function","name":"MAX_BET_PERCENTAGE","inputs":[],"outputs":[{"name":"","type":"uint256","internalType":"uint256"}],"stateMutability":"view"},{"type":"function","name":"MIN_BET","inputs":[],"outputs":[{"name":"","type":"uint256","internalType":"uint256"}],"stateMutability":"view"},{"type":"function","name":"accumulatedFees","inputs":[],"outputs":[{"name":"","type":"uint256","internalType":"uint256"}],"stateMutability":"view"},{"type":"function","name":"depositHouse","inputs":[],"outputs":[],"stateMutability":"payable"},{"type":"function","name":"getHouseStats","inputs":[],"outputs":[{"name":"","type":"uint256","internalType":"uint256"},{"name":"","type":"uint256","internalType":"uint256"},{"name":"","type":"uint256","internalType":"uint256"}],"stateMutability":"view"},{"type":"function","name":"shares","inputs":[{"name":"","type":"address","internalType":"address"}],"outputs":[{"name":"","type":"uint256","internalType":"uint256"}],"stateMutability":"view"},{"type":"function","name":"spin","inputs":[],"outputs":[],"stateMutability":"payable"},{"type":"function","name":"totalShares","inputs":[],"outputs":[{"name":"","type":"uint256","internalType":"uint256"}],"stateMutability":"view"},{"type":"event","name":"HouseDeposit","inputs":[{"name":"provider","type":"address","indexed":true,"internalType":"address"},{"name":"amount","type":"uint256","indexed":false,"internalType":"uint256"},{"name":"sharesMinted","type":"uint256","indexed":false,"internalType":"uint256"}],"anonymous":false},{"type":"event","name":"HouseWithdraw","inputs":[{"name":"provider","type":"address","indexed":true,"internalType":"address"},{"name":"amount","type":"uint256","indexed":false,"internalType":"uint256"},{"name":"sharesBurned","type":"uint256","indexed":false,"internalType":"uint256"}],"anonymous":false},{"type":"event","name":"Spin","inputs":[{"name":"player","type":"address","indexed":true,"internalType":"address"},{"name":"bet","type":"uint256","indexed":false,"internalType":"uint256"},{"name":"outcome","type":"uint256","indexed":false,"internalType":"uint256"},{"name":"payout","type":"uint256","indexed":false,"internalType":"uint256"}],"anonymous":false},{"type":"error","name":"BetTooHigh","inputs":[]},{"type":"error","name":"BetTooLow","inputs":[]},{"type":"error","name":"InsufficientPoolBalance","inputs":[]},{"type":"error","name":"TransferFailed","inputs":[]}],"bytecode":{"object":"0x6080604052348015600e575f5ffd5b50610a428061001c5f395ff3fe608060405260043610610085575f3560e01c80638d2f48ad116100585780638d2f48ad14610133578063a8636b9b1461015d578063becf40b614610167578063ce7c2ac214610191578063f0acd7d5146101cd57610085565b80633a98ef3914610089578063496621d7146100b3578063587f5ed7146100df5780636540742f14610109575b5f5ffd5b348015610094575f5ffd5b5061009d6101d7565b6040516100aa9190610653565b60405180910390f35b3480156100be575f5ffd5b506100c76101dc565b6040516100d69392919061066c565b60405180910390f35b3480156100ea575f5ffd5b506100f3610212565b6040516101009190610653565b60405180910390f35b348015610114575f5ffd5b5061011d610218565b60405161012a9190610653565b60405180910390f35b34801561013e575f5ffd5b50610147610223565b6040516101549190610653565b60405180910390f35b610165610228565b005b348015610172575f5ffd5b5061017b61037b565b6040516101889190610653565b60405180910390f35b34801561019c575f5ffd5b506101b760048036038101906101b291906106ff565b610380565b6040516101c49190610653565b60405180910390f35b6101d5610395565b005b5f5481565b5f5f5f5f60015447116101ef575f6101fe565b600154476101fd9190610757565b5b9050805f5460015493509350935050909192565b60015481565b66038d7ea4c6800081565b600581565b5f341161026a576040517f08c379a0000000000000000000000000000000000000000000000000000000008152600401610261906107e4565b60405180910390fd5b5f600154344761027a9190610757565b6102849190610757565b90505f5f5f54148061029557505f82145b156102a2573490506102bd565b815f54346102b09190610802565b6102ba9190610870565b90505b8060025f3373ffffffffffffffffffffffffffffffffffffffff1673ffffffffffffffffffffffffffffffffffffffff1681526020019081526020015f205f82825461030991906108a0565b92505081905550805f5f82825461032091906108a0565b925050819055503373ffffffffffffffffffffffffffffffffffffffff167fa46fd481a2aade6bcb13a290dd3c9a1ac96aba3b396c510e4a0ab7009a67cf4d348360405161036f9291906108d3565b60405180910390a25050565b600581565b6002602052805f5260405f205f915090505481565b66038d7ea4c680003410156103d6576040517f989e301700000000000000000000000000000000000000000000000000000000815260040160405180910390fd5b5f60015434476103e69190610757565b6103f09190610757565b90505f60646005836104029190610802565b61040c9190610870565b905080341115610448576040517f2eca640200000000000000000000000000000000000000000000000000000000815260040160405180910390fd5b5f60646005346104589190610802565b6104629190610870565b90505f81346104719190610757565b90508160015f82825461048491906108a0565b925050819055505f60644233446040516020016104a39392919061095f565b604051602081830303815290604052805190602001205f1c6104c5919061099b565b90505f5f9050605f8211156104e8576005836104e19190610802565b905061052c565b6050821115610505576002836104fe9190610802565b905061052b565b602d82111561052a57606460968461051d9190610802565b6105279190610870565b90505b5b5b5f8111156105e15747811115610540574790505b5f3373ffffffffffffffffffffffffffffffffffffffff1682604051610565906109f8565b5f6040518083038185875af1925050503d805f811461059f576040519150601f19603f3d011682016040523d82523d5f602084013e6105a4565b606091505b50509050806105df576040517f90b8ec1800000000000000000000000000000000000000000000000000000000815260040160405180910390fd5b505b3373ffffffffffffffffffffffffffffffffffffffff167f796c3cc1d8fae541b37fb55cf476e1e7c984415f196bc81df8056d091e88950e34848460405161062b9392919061066c565b60405180910390a2505050505050565b5f819050919050565b61064d8161063b565b82525050565b5f6020820190506106665f830184610644565b92915050565b5f60608201905061067f5f830186610644565b61068c6020830185610644565b6106996040830184610644565b949350505050565b5f5ffd5b5f73ffffffffffffffffffffffffffffffffffffffff82169050919050565b5f6106ce826106a5565b9050919050565b6106de816106c4565b81146106e8575f5ffd5b50565b5f813590506106f9816106d5565b92915050565b5f60208284031215610714576107136106a1565b5b5f610721848285016106eb565b91505092915050565b7f4e487b71000000000000000000000000000000000000000000000000000000005f52601160045260245ffd5b5f6107618261063b565b915061076c8361063b565b92508282039050818111156107845761078361072a565b5b92915050565b5f82825260208201905092915050565b7f4d757374206465706f73697420455448000000000000000000000000000000005f82015250565b5f6107ce60108361078a565b91506107d98261079a565b602082019050919050565b5f6020820190508181035f8301526107fb816107c2565b9050919050565b5f61080c8261063b565b91506108178361063b565b92508282026108258161063b565b9150828204841483151761083c5761083b61072a565b5b5092915050565b7f4e487b71000000000000000000000000000000000000000000000000000000005f52601260045260245ffd5b5f61087a8261063b565b91506108858361063b565b92508261089557610894610843565b5b828204905092915050565b5f6108aa8261063b565b91506108b58361063b565b92508282019050808211156108cd576108cc61072a565b5b92915050565b5f6040820190506108e65f830185610644565b6108f36020830184610644565b9392505050565b5f819050919050565b61091461090f8261063b565b6108fa565b82525050565b5f8160601b9050919050565b5f6109308261091a565b9050919050565b5f61094182610926565b9050919050565b610959610954826106c4565b610937565b82525050565b5f61096a8286610903565b60208201915061097a8285610948565b60148201915061098a8284610903565b602082019150819050949350505050565b5f6109a58261063b565b91506109b08361063b565b9250826109c0576109bf610843565b5b828206905092915050565b5f81905092915050565b50565b5f6109e35f836109cb565b91506109ee826109d5565b5f82019050919050565b5f610a02826109d8565b915081905091905056fea264697066735822122017e0482308c0b9dd2389929986ca1c513bb0f30671ac1030d0f8854570c90e2364736f6c634300081e0033","linkReferences":{}},"methodIdentifiers":{"HOUSE_EDGE_PERCENT()":"becf40b6","MAX_BET_PERCENTAGE()":"8d2f48ad","MIN_BET()":"6540742f","accumulatedFees()":"587f5ed7","depositHouse()":"a8636b9b","getHouseStats()":"496621d7","shares(address)":"ce7c2ac2","spin()":"f0acd7d5","totalShares()":"3a98ef39"},"id":20}